{
	"contracts/Airdrop.sol": {
		"Airdrop": {
			"abi": [
				{
					"inputs": [],
					"stateMutability": "nonpayable",
					"type": "constructor"
				},
				{
					"inputs": [
						{
							"internalType": "uint256",
							"name": "",
							"type": "uint256"
						}
					],
					"name": "recipients",
					"outputs": [
						{
							"internalType": "address",
							"name": "",
							"type": "address"
						}
					],
					"stateMutability": "view",
					"type": "function"
				},
				{
					"stateMutability": "payable",
					"type": "receive"
				}
			],
			"devdoc": {
				"kind": "dev",
				"methods": {},
				"version": 1
			},
			"evm": {
				"assembly": "    /* \"contracts/Airdrop.sol\":35:842  contract Airdrop{... */\n  mstore(0x40, 0x80)\n    /* \"contracts/Airdrop.sol\":92:133  constructor(){... */\n  callvalue\n  dup1\n  iszero\n  tag_1\n  jumpi\n  0x00\n  dup1\n  revert\ntag_1:\n  pop\n    /* \"contracts/Airdrop.sol\":116:125  balance() */\n  tag_4\n    /* \"contracts/Airdrop.sol\":116:123  balance */\n  shl(0x20, tag_5)\n    /* \"contracts/Airdrop.sol\":116:125  balance() */\n  0x20\n  shr\n  jump\t// in\ntag_4:\n  pop\n    /* \"contracts/Airdrop.sol\":35:842  contract Airdrop{... */\n  jump(tag_6)\n    /* \"contracts/Airdrop.sol\":139:232  function balance() internal view returns(uint){... */\ntag_5:\n    /* \"contracts/Airdrop.sol\":180:184  uint */\n  0x00\n    /* \"contracts/Airdrop.sol\":203:224  address(this).balance */\n  selfbalance\n    /* \"contracts/Airdrop.sol\":196:224  return address(this).balance */\n  swap1\n  pop\n    /* \"contracts/Airdrop.sol\":139:232  function balance() internal view returns(uint){... */\n  swap1\n  jump\t// out\n    /* \"contracts/Airdrop.sol\":35:842  contract Airdrop{... */\ntag_6:\n  dataSize(sub_0)\n  dup1\n  dataOffset(sub_0)\n  0x00\n  codecopy\n  0x00\n  return\nstop\n\nsub_0: assembly {\n        /* \"contracts/Airdrop.sol\":35:842  contract Airdrop{... */\n      mstore(0x40, 0x80)\n      jumpi(tag_1, lt(calldatasize, 0x04))\n      shr(0xe0, calldataload(0x00))\n      dup1\n      0xd1bc76a1\n      eq\n      tag_3\n      jumpi\n      jump(tag_2)\n    tag_1:\n      jumpi(tag_2, calldatasize)\n        /* \"contracts/Airdrop.sol\":296:305  0.1 ether */\n      0x016345785d8a0000\n        /* \"contracts/Airdrop.sol\":283:292  msg.value */\n      callvalue\n        /* \"contracts/Airdrop.sol\":283:305  msg.value == 0.1 ether */\n      eq\n        /* \"contracts/Airdrop.sol\":275:352  require(msg.value == 0.1 ether, \"Only 0.1 ether is accepted by the contract\") */\n      tag_6\n      jumpi\n      mload(0x40)\n      0x08c379a000000000000000000000000000000000000000000000000000000000\n      dup2\n      mstore\n      0x04\n      add\n      tag_7\n      swap1\n      tag_8\n      jump\t// in\n    tag_7:\n      mload(0x40)\n      dup1\n      swap2\n      sub\n      swap1\n      revert\n    tag_6:\n        /* \"contracts/Airdrop.sol\":395:405  10.1 ether */\n      0x8c2a687ce7720000\n        /* \"contracts/Airdrop.sol\":371:392  address(this).balance */\n      selfbalance\n        /* \"contracts/Airdrop.sol\":371:405  address(this).balance > 10.1 ether */\n      gt\n        /* \"contracts/Airdrop.sol\":363:431  require(address(this).balance > 10.1 ether, \"Insufficient balance!\") */\n      tag_9\n      jumpi\n      mload(0x40)\n      0x08c379a000000000000000000000000000000000000000000000000000000000\n      dup2\n      mstore\n      0x04\n      add\n      tag_10\n      swap1\n      tag_11\n      jump\t// in\n    tag_10:\n      mload(0x40)\n      dup1\n      swap2\n      sub\n      swap1\n      revert\n    tag_9:\n        /* \"contracts/Airdrop.sol\":471:475  true */\n      0x01\n        /* \"contracts/Airdrop.sol\":450:475  check(msg.sender) == true */\n      iszero\n      iszero\n        /* \"contracts/Airdrop.sol\":450:467  check(msg.sender) */\n      tag_12\n        /* \"contracts/Airdrop.sol\":456:466  msg.sender */\n      caller\n        /* \"contracts/Airdrop.sol\":450:455  check */\n      tag_13\n        /* \"contracts/Airdrop.sol\":450:467  check(msg.sender) */\n      jump\t// in\n    tag_12:\n        /* \"contracts/Airdrop.sol\":450:475  check(msg.sender) == true */\n      iszero\n      iszero\n      eq\n        /* \"contracts/Airdrop.sol\":442:498  require(check(msg.sender) == true, \"Only allowed once!\") */\n      tag_14\n      jumpi\n      mload(0x40)\n      0x08c379a000000000000000000000000000000000000000000000000000000000\n      dup2\n      mstore\n      0x04\n      add\n      tag_15\n      swap1\n      tag_16\n      jump\t// in\n    tag_15:\n      mload(0x40)\n      dup1\n      swap2\n      sub\n      swap1\n      revert\n    tag_14:\n        /* \"contracts/Airdrop.sol\":517:527  msg.sender */\n      caller\n        /* \"contracts/Airdrop.sol\":509:537  payable(msg.sender).transfer */\n      0xffffffffffffffffffffffffffffffffffffffff\n      and\n        /* \"contracts/Airdrop.sol\":509:547  payable(msg.sender).transfer(10 ether) */\n      0x08fc\n        /* \"contracts/Airdrop.sol\":538:546  10 ether */\n      0x8ac7230489e80000\n        /* \"contracts/Airdrop.sol\":509:547  payable(msg.sender).transfer(10 ether) */\n      swap1\n      dup2\n      iszero\n      mul\n      swap1\n      mload(0x40)\n      0x00\n      mload(0x40)\n      dup1\n      dup4\n      sub\n      dup2\n      dup6\n      dup9\n      dup9\n      call\n      swap4\n      pop\n      pop\n      pop\n      pop\n      iszero\n      dup1\n      iszero\n      tag_18\n      jumpi\n      returndatasize\n      0x00\n      dup1\n      returndatacopy\n      revert(0x00, returndatasize)\n    tag_18:\n      pop\n        /* \"contracts/Airdrop.sol\":558:568  recipients */\n      0x00\n        /* \"contracts/Airdrop.sol\":574:584  msg.sender */\n      caller\n        /* \"contracts/Airdrop.sol\":558:585  recipients.push(msg.sender) */\n      swap1\n      dup1\n      0x01\n      dup2\n      sload\n      add\n      dup1\n      dup3\n      sstore\n      dup1\n      swap2\n      pop\n      pop\n      0x01\n      swap1\n      sub\n      swap1\n      0x00\n      mstore\n      keccak256(0x00, 0x20)\n      add\n      0x00\n      swap1\n      swap2\n      swap1\n      swap2\n      swap1\n      swap2\n      0x0100\n      exp\n      dup2\n      sload\n      dup2\n      0xffffffffffffffffffffffffffffffffffffffff\n      mul\n      not\n      and\n      swap1\n      dup4\n      0xffffffffffffffffffffffffffffffffffffffff\n      and\n      mul\n      or\n      swap1\n      sstore\n      stop\n        /* \"contracts/Airdrop.sol\":35:842  contract Airdrop{... */\n    tag_2:\n      0x00\n      dup1\n      revert\n        /* \"contracts/Airdrop.sol\":58:85  address[] public recipients */\n    tag_3:\n      callvalue\n      dup1\n      iszero\n      tag_20\n      jumpi\n      0x00\n      dup1\n      revert\n    tag_20:\n      pop\n      tag_21\n      0x04\n      dup1\n      calldatasize\n      sub\n      dup2\n      add\n      swap1\n      tag_22\n      swap2\n      swap1\n      tag_23\n      jump\t// in\n    tag_22:\n      tag_24\n      jump\t// in\n    tag_21:\n      mload(0x40)\n      tag_25\n      swap2\n      swap1\n      tag_26\n      jump\t// in\n    tag_25:\n      mload(0x40)\n      dup1\n      swap2\n      sub\n      swap1\n      return\n        /* \"contracts/Airdrop.sol\":599:839  function check(address current) internal view returns(bool){... */\n    tag_13:\n        /* \"contracts/Airdrop.sol\":653:657  bool */\n      0x00\n        /* \"contracts/Airdrop.sol\":673:679  uint i */\n      dup1\n        /* \"contracts/Airdrop.sol\":681:682  0 */\n      0x00\n        /* \"contracts/Airdrop.sol\":673:682  uint i =0 */\n      swap1\n      pop\n        /* \"contracts/Airdrop.sol\":669:809  for(uint i =0; i<recipients.length; i++){... */\n    tag_28:\n        /* \"contracts/Airdrop.sol\":686:696  recipients */\n      0x00\n        /* \"contracts/Airdrop.sol\":686:703  recipients.length */\n      dup1\n      sload\n      swap1\n      pop\n        /* \"contracts/Airdrop.sol\":684:685  i */\n      dup2\n        /* \"contracts/Airdrop.sol\":684:703  i<recipients.length */\n      lt\n        /* \"contracts/Airdrop.sol\":669:809  for(uint i =0; i<recipients.length; i++){... */\n      iszero\n      tag_29\n      jumpi\n        /* \"contracts/Airdrop.sol\":738:748  recipients */\n      0x00\n        /* \"contracts/Airdrop.sol\":749:750  i */\n      dup2\n        /* \"contracts/Airdrop.sol\":738:751  recipients[i] */\n      dup2\n      sload\n      dup2\n      lt\n      tag_31\n      jumpi\n      tag_32\n      tag_33\n      jump\t// in\n    tag_32:\n    tag_31:\n      swap1\n      0x00\n      mstore\n      keccak256(0x00, 0x20)\n      add\n      0x00\n      swap1\n      sload\n      swap1\n      0x0100\n      exp\n      swap1\n      div\n      0xffffffffffffffffffffffffffffffffffffffff\n      and\n        /* \"contracts/Airdrop.sol\":727:751  current == recipients[i] */\n      0xffffffffffffffffffffffffffffffffffffffff\n      and\n        /* \"contracts/Airdrop.sol\":727:734  current */\n      dup4\n        /* \"contracts/Airdrop.sol\":727:751  current == recipients[i] */\n      0xffffffffffffffffffffffffffffffffffffffff\n      and\n      sub\n        /* \"contracts/Airdrop.sol\":724:798  if(current == recipients[i]){... */\n      tag_35\n      jumpi\n        /* \"contracts/Airdrop.sol\":778:782  true */\n      0x01\n        /* \"contracts/Airdrop.sol\":771:782  return true */\n      swap2\n      pop\n      pop\n      jump(tag_27)\n        /* \"contracts/Airdrop.sol\":724:798  if(current == recipients[i]){... */\n    tag_35:\n        /* \"contracts/Airdrop.sol\":705:708  i++ */\n      dup1\n      dup1\n      tag_36\n      swap1\n      tag_37\n      jump\t// in\n    tag_36:\n      swap2\n      pop\n      pop\n        /* \"contracts/Airdrop.sol\":669:809  for(uint i =0; i<recipients.length; i++){... */\n      jump(tag_28)\n    tag_29:\n      pop\n        /* \"contracts/Airdrop.sol\":826:831  false */\n      0x00\n        /* \"contracts/Airdrop.sol\":819:831  return false */\n      swap1\n      pop\n        /* \"contracts/Airdrop.sol\":599:839  function check(address current) internal view returns(bool){... */\n    tag_27:\n      swap2\n      swap1\n      pop\n      jump\t// out\n        /* \"contracts/Airdrop.sol\":58:85  address[] public recipients */\n    tag_24:\n      0x00\n      dup2\n      dup2\n      sload\n      dup2\n      lt\n      tag_38\n      jumpi\n      0x00\n      dup1\n      revert\n    tag_38:\n      swap1\n      0x00\n      mstore\n      keccak256(0x00, 0x20)\n      add\n      0x00\n      swap2\n      pop\n      sload\n      swap1\n      0x0100\n      exp\n      swap1\n      div\n      0xffffffffffffffffffffffffffffffffffffffff\n      and\n      dup2\n      jump\t// out\n        /* \"#utility.yul\":7:176   */\n    tag_40:\n        /* \"#utility.yul\":91:102   */\n      0x00\n        /* \"#utility.yul\":125:131   */\n      dup3\n        /* \"#utility.yul\":120:123   */\n      dup3\n        /* \"#utility.yul\":113:132   */\n      mstore\n        /* \"#utility.yul\":165:169   */\n      0x20\n        /* \"#utility.yul\":160:163   */\n      dup3\n        /* \"#utility.yul\":156:170   */\n      add\n        /* \"#utility.yul\":141:170   */\n      swap1\n      pop\n        /* \"#utility.yul\":7:176   */\n      swap3\n      swap2\n      pop\n      pop\n      jump\t// out\n        /* \"#utility.yul\":182:411   */\n    tag_41:\n        /* \"#utility.yul\":322:356   */\n      0x4f6e6c7920302e31206574686572206973206163636570746564206279207468\n        /* \"#utility.yul\":318:319   */\n      0x00\n        /* \"#utility.yul\":310:316   */\n      dup3\n        /* \"#utility.yul\":306:320   */\n      add\n        /* \"#utility.yul\":299:357   */\n      mstore\n        /* \"#utility.yul\":391:403   */\n      0x6520636f6e747261637400000000000000000000000000000000000000000000\n        /* \"#utility.yul\":386:388   */\n      0x20\n        /* \"#utility.yul\":378:384   */\n      dup3\n        /* \"#utility.yul\":374:389   */\n      add\n        /* \"#utility.yul\":367:404   */\n      mstore\n        /* \"#utility.yul\":182:411   */\n      pop\n      jump\t// out\n        /* \"#utility.yul\":417:783   */\n    tag_42:\n        /* \"#utility.yul\":559:562   */\n      0x00\n        /* \"#utility.yul\":580:647   */\n      tag_61\n        /* \"#utility.yul\":644:646   */\n      0x2a\n        /* \"#utility.yul\":639:642   */\n      dup4\n        /* \"#utility.yul\":580:647   */\n      tag_40\n      jump\t// in\n    tag_61:\n        /* \"#utility.yul\":573:647   */\n      swap2\n      pop\n        /* \"#utility.yul\":656:749   */\n      tag_62\n        /* \"#utility.yul\":745:748   */\n      dup3\n        /* \"#utility.yul\":656:749   */\n      tag_41\n      jump\t// in\n    tag_62:\n        /* \"#utility.yul\":774:776   */\n      0x40\n        /* \"#utility.yul\":769:772   */\n      dup3\n        /* \"#utility.yul\":765:777   */\n      add\n        /* \"#utility.yul\":758:777   */\n      swap1\n      pop\n        /* \"#utility.yul\":417:783   */\n      swap2\n      swap1\n      pop\n      jump\t// out\n        /* \"#utility.yul\":789:1208   */\n    tag_8:\n        /* \"#utility.yul\":955:959   */\n      0x00\n        /* \"#utility.yul\":993:995   */\n      0x20\n        /* \"#utility.yul\":982:991   */\n      dup3\n        /* \"#utility.yul\":978:996   */\n      add\n        /* \"#utility.yul\":970:996   */\n      swap1\n      pop\n        /* \"#utility.yul\":1042:1051   */\n      dup2\n        /* \"#utility.yul\":1036:1040   */\n      dup2\n        /* \"#utility.yul\":1032:1052   */\n      sub\n        /* \"#utility.yul\":1028:1029   */\n      0x00\n        /* \"#utility.yul\":1017:1026   */\n      dup4\n        /* \"#utility.yul\":1013:1030   */\n      add\n        /* \"#utility.yul\":1006:1053   */\n      mstore\n        /* \"#utility.yul\":1070:1201   */\n      tag_64\n        /* \"#utility.yul\":1196:1200   */\n      dup2\n        /* \"#utility.yul\":1070:1201   */\n      tag_42\n      jump\t// in\n    tag_64:\n        /* \"#utility.yul\":1062:1201   */\n      swap1\n      pop\n        /* \"#utility.yul\":789:1208   */\n      swap2\n      swap1\n      pop\n      jump\t// out\n        /* \"#utility.yul\":1214:1385   */\n    tag_43:\n        /* \"#utility.yul\":1354:1377   */\n      0x496e73756666696369656e742062616c616e6365210000000000000000000000\n        /* \"#utility.yul\":1350:1351   */\n      0x00\n        /* \"#utility.yul\":1342:1348   */\n      dup3\n        /* \"#utility.yul\":1338:1352   */\n      add\n        /* \"#utility.yul\":1331:1378   */\n      mstore\n        /* \"#utility.yul\":1214:1385   */\n      pop\n      jump\t// out\n        /* \"#utility.yul\":1391:1757   */\n    tag_44:\n        /* \"#utility.yul\":1533:1536   */\n      0x00\n        /* \"#utility.yul\":1554:1621   */\n      tag_67\n        /* \"#utility.yul\":1618:1620   */\n      0x15\n        /* \"#utility.yul\":1613:1616   */\n      dup4\n        /* \"#utility.yul\":1554:1621   */\n      tag_40\n      jump\t// in\n    tag_67:\n        /* \"#utility.yul\":1547:1621   */\n      swap2\n      pop\n        /* \"#utility.yul\":1630:1723   */\n      tag_68\n        /* \"#utility.yul\":1719:1722   */\n      dup3\n        /* \"#utility.yul\":1630:1723   */\n      tag_43\n      jump\t// in\n    tag_68:\n        /* \"#utility.yul\":1748:1750   */\n      0x20\n        /* \"#utility.yul\":1743:1746   */\n      dup3\n        /* \"#utility.yul\":1739:1751   */\n      add\n        /* \"#utility.yul\":1732:1751   */\n      swap1\n      pop\n        /* \"#utility.yul\":1391:1757   */\n      swap2\n      swap1\n      pop\n      jump\t// out\n        /* \"#utility.yul\":1763:2182   */\n    tag_11:\n        /* \"#utility.yul\":1929:1933   */\n      0x00\n        /* \"#utility.yul\":1967:1969   */\n      0x20\n        /* \"#utility.yul\":1956:1965   */\n      dup3\n        /* \"#utility.yul\":1952:1970   */\n      add\n        /* \"#utility.yul\":1944:1970   */\n      swap1\n      pop\n        /* \"#utility.yul\":2016:2025   */\n      dup2\n        /* \"#utility.yul\":2010:2014   */\n      dup2\n        /* \"#utility.yul\":2006:2026   */\n      sub\n        /* \"#utility.yul\":2002:2003   */\n      0x00\n        /* \"#utility.yul\":1991:2000   */\n      dup4\n        /* \"#utility.yul\":1987:2004   */\n      add\n        /* \"#utility.yul\":1980:2027   */\n      mstore\n        /* \"#utility.yul\":2044:2175   */\n      tag_70\n        /* \"#utility.yul\":2170:2174   */\n      dup2\n        /* \"#utility.yul\":2044:2175   */\n      tag_44\n      jump\t// in\n    tag_70:\n        /* \"#utility.yul\":2036:2175   */\n      swap1\n      pop\n        /* \"#utility.yul\":1763:2182   */\n      swap2\n      swap1\n      pop\n      jump\t// out\n        /* \"#utility.yul\":2188:2356   */\n    tag_45:\n        /* \"#utility.yul\":2328:2348   */\n      0x4f6e6c7920616c6c6f776564206f6e6365210000000000000000000000000000\n        /* \"#utility.yul\":2324:2325   */\n      0x00\n        /* \"#utility.yul\":2316:2322   */\n      dup3\n        /* \"#utility.yul\":2312:2326   */\n      add\n        /* \"#utility.yul\":2305:2349   */\n      mstore\n        /* \"#utility.yul\":2188:2356   */\n      pop\n      jump\t// out\n        /* \"#utility.yul\":2362:2728   */\n    tag_46:\n        /* \"#utility.yul\":2504:2507   */\n      0x00\n        /* \"#utility.yul\":2525:2592   */\n      tag_73\n        /* \"#utility.yul\":2589:2591   */\n      0x12\n        /* \"#utility.yul\":2584:2587   */\n      dup4\n        /* \"#utility.yul\":2525:2592   */\n      tag_40\n      jump\t// in\n    tag_73:\n        /* \"#utility.yul\":2518:2592   */\n      swap2\n      pop\n        /* \"#utility.yul\":2601:2694   */\n      tag_74\n        /* \"#utility.yul\":2690:2693   */\n      dup3\n        /* \"#utility.yul\":2601:2694   */\n      tag_45\n      jump\t// in\n    tag_74:\n        /* \"#utility.yul\":2719:2721   */\n      0x20\n        /* \"#utility.yul\":2714:2717   */\n      dup3\n        /* \"#utility.yul\":2710:2722   */\n      add\n        /* \"#utility.yul\":2703:2722   */\n      swap1\n      pop\n        /* \"#utility.yul\":2362:2728   */\n      swap2\n      swap1\n      pop\n      jump\t// out\n        /* \"#utility.yul\":2734:3153   */\n    tag_16:\n        /* \"#utility.yul\":2900:2904   */\n      0x00\n        /* \"#utility.yul\":2938:2940   */\n      0x20\n        /* \"#utility.yul\":2927:2936   */\n      dup3\n        /* \"#utility.yul\":2923:2941   */\n      add\n        /* \"#utility.yul\":2915:2941   */\n      swap1\n      pop\n        /* \"#utility.yul\":2987:2996   */\n      dup2\n        /* \"#utility.yul\":2981:2985   */\n      dup2\n        /* \"#utility.yul\":2977:2997   */\n      sub\n        /* \"#utility.yul\":2973:2974   */\n      0x00\n        /* \"#utility.yul\":2962:2971   */\n      dup4\n        /* \"#utility.yul\":2958:2975   */\n      add\n        /* \"#utility.yul\":2951:2998   */\n      mstore\n        /* \"#utility.yul\":3015:3146   */\n      tag_76\n        /* \"#utility.yul\":3141:3145   */\n      dup2\n        /* \"#utility.yul\":3015:3146   */\n      tag_46\n      jump\t// in\n    tag_76:\n        /* \"#utility.yul\":3007:3146   */\n      swap1\n      pop\n        /* \"#utility.yul\":2734:3153   */\n      swap2\n      swap1\n      pop\n      jump\t// out\n        /* \"#utility.yul\":3240:3357   */\n    tag_48:\n        /* \"#utility.yul\":3349:3350   */\n      0x00\n        /* \"#utility.yul\":3346:3347   */\n      dup1\n        /* \"#utility.yul\":3339:3351   */\n      revert\n        /* \"#utility.yul\":3486:3563   */\n    tag_50:\n        /* \"#utility.yul\":3523:3530   */\n      0x00\n        /* \"#utility.yul\":3552:3557   */\n      dup2\n        /* \"#utility.yul\":3541:3557   */\n      swap1\n      pop\n        /* \"#utility.yul\":3486:3563   */\n      swap2\n      swap1\n      pop\n      jump\t// out\n        /* \"#utility.yul\":3569:3691   */\n    tag_51:\n        /* \"#utility.yul\":3642:3666   */\n      tag_82\n        /* \"#utility.yul\":3660:3665   */\n      dup2\n        /* \"#utility.yul\":3642:3666   */\n      tag_50\n      jump\t// in\n    tag_82:\n        /* \"#utility.yul\":3635:3640   */\n      dup2\n        /* \"#utility.yul\":3632:3667   */\n      eq\n        /* \"#utility.yul\":3622:3685   */\n      tag_83\n      jumpi\n        /* \"#utility.yul\":3681:3682   */\n      0x00\n        /* \"#utility.yul\":3678:3679   */\n      dup1\n        /* \"#utility.yul\":3671:3683   */\n      revert\n        /* \"#utility.yul\":3622:3685   */\n    tag_83:\n        /* \"#utility.yul\":3569:3691   */\n      pop\n      jump\t// out\n        /* \"#utility.yul\":3697:3836   */\n    tag_52:\n        /* \"#utility.yul\":3743:3748   */\n      0x00\n        /* \"#utility.yul\":3781:3787   */\n      dup2\n        /* \"#utility.yul\":3768:3788   */\n      calldataload\n        /* \"#utility.yul\":3759:3788   */\n      swap1\n      pop\n        /* \"#utility.yul\":3797:3830   */\n      tag_85\n        /* \"#utility.yul\":3824:3829   */\n      dup2\n        /* \"#utility.yul\":3797:3830   */\n      tag_51\n      jump\t// in\n    tag_85:\n        /* \"#utility.yul\":3697:3836   */\n      swap3\n      swap2\n      pop\n      pop\n      jump\t// out\n        /* \"#utility.yul\":3842:4171   */\n    tag_23:\n        /* \"#utility.yul\":3901:3907   */\n      0x00\n        /* \"#utility.yul\":3950:3952   */\n      0x20\n        /* \"#utility.yul\":3938:3947   */\n      dup3\n        /* \"#utility.yul\":3929:3936   */\n      dup5\n        /* \"#utility.yul\":3925:3948   */\n      sub\n        /* \"#utility.yul\":3921:3953   */\n      slt\n        /* \"#utility.yul\":3918:4037   */\n      iszero\n      tag_87\n      jumpi\n        /* \"#utility.yul\":3956:4035   */\n      tag_88\n      tag_48\n      jump\t// in\n    tag_88:\n        /* \"#utility.yul\":3918:4037   */\n    tag_87:\n        /* \"#utility.yul\":4076:4077   */\n      0x00\n        /* \"#utility.yul\":4101:4154   */\n      tag_89\n        /* \"#utility.yul\":4146:4153   */\n      dup5\n        /* \"#utility.yul\":4137:4143   */\n      dup3\n        /* \"#utility.yul\":4126:4135   */\n      dup6\n        /* \"#utility.yul\":4122:4144   */\n      add\n        /* \"#utility.yul\":4101:4154   */\n      tag_52\n      jump\t// in\n    tag_89:\n        /* \"#utility.yul\":4091:4154   */\n      swap2\n      pop\n        /* \"#utility.yul\":4047:4164   */\n      pop\n        /* \"#utility.yul\":3842:4171   */\n      swap3\n      swap2\n      pop\n      pop\n      jump\t// out\n        /* \"#utility.yul\":4177:4303   */\n    tag_53:\n        /* \"#utility.yul\":4214:4221   */\n      0x00\n        /* \"#utility.yul\":4254:4296   */\n      0xffffffffffffffffffffffffffffffffffffffff\n        /* \"#utility.yul\":4247:4252   */\n      dup3\n        /* \"#utility.yul\":4243:4297   */\n      and\n        /* \"#utility.yul\":4232:4297   */\n      swap1\n      pop\n        /* \"#utility.yul\":4177:4303   */\n      swap2\n      swap1\n      pop\n      jump\t// out\n        /* \"#utility.yul\":4309:4405   */\n    tag_54:\n        /* \"#utility.yul\":4346:4353   */\n      0x00\n        /* \"#utility.yul\":4375:4399   */\n      tag_92\n        /* \"#utility.yul\":4393:4398   */\n      dup3\n        /* \"#utility.yul\":4375:4399   */\n      tag_53\n      jump\t// in\n    tag_92:\n        /* \"#utility.yul\":4364:4399   */\n      swap1\n      pop\n        /* \"#utility.yul\":4309:4405   */\n      swap2\n      swap1\n      pop\n      jump\t// out\n        /* \"#utility.yul\":4411:4529   */\n    tag_55:\n        /* \"#utility.yul\":4498:4522   */\n      tag_94\n        /* \"#utility.yul\":4516:4521   */\n      dup2\n        /* \"#utility.yul\":4498:4522   */\n      tag_54\n      jump\t// in\n    tag_94:\n        /* \"#utility.yul\":4493:4496   */\n      dup3\n        /* \"#utility.yul\":4486:4523   */\n      mstore\n        /* \"#utility.yul\":4411:4529   */\n      pop\n      pop\n      jump\t// out\n        /* \"#utility.yul\":4535:4757   */\n    tag_26:\n        /* \"#utility.yul\":4628:4632   */\n      0x00\n        /* \"#utility.yul\":4666:4668   */\n      0x20\n        /* \"#utility.yul\":4655:4664   */\n      dup3\n        /* \"#utility.yul\":4651:4669   */\n      add\n        /* \"#utility.yul\":4643:4669   */\n      swap1\n      pop\n        /* \"#utility.yul\":4679:4750   */\n      tag_96\n        /* \"#utility.yul\":4747:4748   */\n      0x00\n        /* \"#utility.yul\":4736:4745   */\n      dup4\n        /* \"#utility.yul\":4732:4749   */\n      add\n        /* \"#utility.yul\":4723:4729   */\n      dup5\n        /* \"#utility.yul\":4679:4750   */\n      tag_55\n      jump\t// in\n    tag_96:\n        /* \"#utility.yul\":4535:4757   */\n      swap3\n      swap2\n      pop\n      pop\n      jump\t// out\n        /* \"#utility.yul\":4763:4943   */\n    tag_33:\n        /* \"#utility.yul\":4811:4888   */\n      0x4e487b7100000000000000000000000000000000000000000000000000000000\n        /* \"#utility.yul\":4808:4809   */\n      0x00\n        /* \"#utility.yul\":4801:4889   */\n      mstore\n        /* \"#utility.yul\":4908:4912   */\n      0x32\n        /* \"#utility.yul\":4905:4906   */\n      0x04\n        /* \"#utility.yul\":4898:4913   */\n      mstore\n        /* \"#utility.yul\":4932:4936   */\n      0x24\n        /* \"#utility.yul\":4929:4930   */\n      0x00\n        /* \"#utility.yul\":4922:4937   */\n      revert\n        /* \"#utility.yul\":4949:5129   */\n    tag_56:\n        /* \"#utility.yul\":4997:5074   */\n      0x4e487b7100000000000000000000000000000000000000000000000000000000\n        /* \"#utility.yul\":4994:4995   */\n      0x00\n        /* \"#utility.yul\":4987:5075   */\n      mstore\n        /* \"#utility.yul\":5094:5098   */\n      0x11\n        /* \"#utility.yul\":5091:5092   */\n      0x04\n        /* \"#utility.yul\":5084:5099   */\n      mstore\n        /* \"#utility.yul\":5118:5122   */\n      0x24\n        /* \"#utility.yul\":5115:5116   */\n      0x00\n        /* \"#utility.yul\":5108:5123   */\n      revert\n        /* \"#utility.yul\":5135:5368   */\n    tag_37:\n        /* \"#utility.yul\":5174:5177   */\n      0x00\n        /* \"#utility.yul\":5197:5221   */\n      tag_100\n        /* \"#utility.yul\":5215:5220   */\n      dup3\n        /* \"#utility.yul\":5197:5221   */\n      tag_50\n      jump\t// in\n    tag_100:\n        /* \"#utility.yul\":5188:5221   */\n      swap2\n      pop\n        /* \"#utility.yul\":5243:5309   */\n      0xffffffffffffffffffffffffffffffffffffffffffffffffffffffffffffffff\n        /* \"#utility.yul\":5236:5241   */\n      dup3\n        /* \"#utility.yul\":5233:5310   */\n      sub\n        /* \"#utility.yul\":5230:5333   */\n      tag_101\n      jumpi\n        /* \"#utility.yul\":5313:5331   */\n      tag_102\n      tag_56\n      jump\t// in\n    tag_102:\n        /* \"#utility.yul\":5230:5333   */\n    tag_101:\n        /* \"#utility.yul\":5360:5361   */\n      0x01\n        /* \"#utility.yul\":5353:5358   */\n      dup3\n        /* \"#utility.yul\":5349:5362   */\n      add\n        /* \"#utility.yul\":5342:5362   */\n      swap1\n      pop\n        /* \"#utility.yul\":5135:5368   */\n      swap2\n      swap1\n      pop\n      jump\t// out\n\n    auxdata: 0xa2646970667358221220f4cdccfe7fa5b79f8da662dda28697738ed18f0e307c1d333c4f901948ad7e9564736f6c63430008110033\n}\n",
				"bytecode": {
					"linkReferences": {},
					"object": "608060405234801561001057600080fd5b5061001f61002560201b60201c565b5061002d565b600047905090565b6106078061003c6000396000f3fe6080604052600436106100225760003560e01c8063d1bc76a1146101c2576101bd565b366101bd5767016345785d8a00003414610071576040517f08c379a00000000000000000000000000000000000000000000000000000000081526004016100689061036f565b60405180910390fd5b678c2a687ce772000047116100bb576040517f08c379a00000000000000000000000000000000000000000000000000000000081526004016100b2906103db565b60405180910390fd5b600115156100c8336101ff565b15151461010a576040517f08c379a000000000000000000000000000000000000000000000000000000000815260040161010190610447565b60405180910390fd5b3373ffffffffffffffffffffffffffffffffffffffff166108fc678ac7230489e800009081150290604051600060405180830381858888f19350505050158015610158573d6000803e3d6000fd5b506000339080600181540180825580915050600190039060005260206000200160009091909190916101000a81548173ffffffffffffffffffffffffffffffffffffffff021916908373ffffffffffffffffffffffffffffffffffffffff1602179055005b600080fd5b3480156101ce57600080fd5b506101e960048036038101906101e491906104a2565b6102ad565b6040516101f69190610510565b60405180910390f35b600080600090505b6000805490508110156102a257600081815481106102285761022761052b565b5b9060005260206000200160009054906101000a900473ffffffffffffffffffffffffffffffffffffffff1673ffffffffffffffffffffffffffffffffffffffff168373ffffffffffffffffffffffffffffffffffffffff160361028f5760019150506102a8565b808061029a90610589565b915050610207565b50600090505b919050565b600081815481106102bd57600080fd5b906000526020600020016000915054906101000a900473ffffffffffffffffffffffffffffffffffffffff1681565b600082825260208201905092915050565b7f4f6e6c7920302e3120657468657220697320616363657074656420627920746860008201527f6520636f6e747261637400000000000000000000000000000000000000000000602082015250565b6000610359602a836102ec565b9150610364826102fd565b604082019050919050565b600060208201905081810360008301526103888161034c565b9050919050565b7f496e73756666696369656e742062616c616e6365210000000000000000000000600082015250565b60006103c56015836102ec565b91506103d08261038f565b602082019050919050565b600060208201905081810360008301526103f4816103b8565b9050919050565b7f4f6e6c7920616c6c6f776564206f6e6365210000000000000000000000000000600082015250565b60006104316012836102ec565b915061043c826103fb565b602082019050919050565b6000602082019050818103600083015261046081610424565b9050919050565b600080fd5b6000819050919050565b61047f8161046c565b811461048a57600080fd5b50565b60008135905061049c81610476565b92915050565b6000602082840312156104b8576104b7610467565b5b60006104c68482850161048d565b91505092915050565b600073ffffffffffffffffffffffffffffffffffffffff82169050919050565b60006104fa826104cf565b9050919050565b61050a816104ef565b82525050565b60006020820190506105256000830184610501565b92915050565b7f4e487b7100000000000000000000000000000000000000000000000000000000600052603260045260246000fd5b7f4e487b7100000000000000000000000000000000000000000000000000000000600052601160045260246000fd5b60006105948261046c565b91507fffffffffffffffffffffffffffffffffffffffffffffffffffffffffffffffff82036105c6576105c561055a565b5b60018201905091905056fea2646970667358221220f4cdccfe7fa5b79f8da662dda28697738ed18f0e307c1d333c4f901948ad7e9564736f6c63430008110033",
					"opcodes": "PUSH1 0x80 PUSH1 0x40 MSTORE CALLVALUE DUP1 ISZERO PUSH2 0x10 JUMPI PUSH1 0x0 DUP1 REVERT JUMPDEST POP PUSH2 0x1F PUSH2 0x25 PUSH1 0x20 SHL PUSH1 0x20 SHR JUMP JUMPDEST POP PUSH2 0x2D JUMP JUMPDEST PUSH1 0x0 SELFBALANCE SWAP1 POP SWAP1 JUMP JUMPDEST PUSH2 0x607 DUP1 PUSH2 0x3C PUSH1 0x0 CODECOPY PUSH1 0x0 RETURN INVALID PUSH1 0x80 PUSH1 0x40 MSTORE PUSH1 0x4 CALLDATASIZE LT PUSH2 0x22 JUMPI PUSH1 0x0 CALLDATALOAD PUSH1 0xE0 SHR DUP1 PUSH4 0xD1BC76A1 EQ PUSH2 0x1C2 JUMPI PUSH2 0x1BD JUMP JUMPDEST CALLDATASIZE PUSH2 0x1BD JUMPI PUSH8 0x16345785D8A0000 CALLVALUE EQ PUSH2 0x71 JUMPI PUSH1 0x40 MLOAD PUSH32 0x8C379A000000000000000000000000000000000000000000000000000000000 DUP2 MSTORE PUSH1 0x4 ADD PUSH2 0x68 SWAP1 PUSH2 0x36F JUMP JUMPDEST PUSH1 0x40 MLOAD DUP1 SWAP2 SUB SWAP1 REVERT JUMPDEST PUSH8 0x8C2A687CE7720000 SELFBALANCE GT PUSH2 0xBB JUMPI PUSH1 0x40 MLOAD PUSH32 0x8C379A000000000000000000000000000000000000000000000000000000000 DUP2 MSTORE PUSH1 0x4 ADD PUSH2 0xB2 SWAP1 PUSH2 0x3DB JUMP JUMPDEST PUSH1 0x40 MLOAD DUP1 SWAP2 SUB SWAP1 REVERT JUMPDEST PUSH1 0x1 ISZERO ISZERO PUSH2 0xC8 CALLER PUSH2 0x1FF JUMP JUMPDEST ISZERO ISZERO EQ PUSH2 0x10A JUMPI PUSH1 0x40 MLOAD PUSH32 0x8C379A000000000000000000000000000000000000000000000000000000000 DUP2 MSTORE PUSH1 0x4 ADD PUSH2 0x101 SWAP1 PUSH2 0x447 JUMP JUMPDEST PUSH1 0x40 MLOAD DUP1 SWAP2 SUB SWAP1 REVERT JUMPDEST CALLER PUSH20 0xFFFFFFFFFFFFFFFFFFFFFFFFFFFFFFFFFFFFFFFF AND PUSH2 0x8FC PUSH8 0x8AC7230489E80000 SWAP1 DUP2 ISZERO MUL SWAP1 PUSH1 0x40 MLOAD PUSH1 0x0 PUSH1 0x40 MLOAD DUP1 DUP4 SUB DUP2 DUP6 DUP9 DUP9 CALL SWAP4 POP POP POP POP ISZERO DUP1 ISZERO PUSH2 0x158 JUMPI RETURNDATASIZE PUSH1 0x0 DUP1 RETURNDATACOPY RETURNDATASIZE PUSH1 0x0 REVERT JUMPDEST POP PUSH1 0x0 CALLER SWAP1 DUP1 PUSH1 0x1 DUP2 SLOAD ADD DUP1 DUP3 SSTORE DUP1 SWAP2 POP POP PUSH1 0x1 SWAP1 SUB SWAP1 PUSH1 0x0 MSTORE PUSH1 0x20 PUSH1 0x0 KECCAK256 ADD PUSH1 0x0 SWAP1 SWAP2 SWAP1 SWAP2 SWAP1 SWAP2 PUSH2 0x100 EXP DUP2 SLOAD DUP2 PUSH20 0xFFFFFFFFFFFFFFFFFFFFFFFFFFFFFFFFFFFFFFFF MUL NOT AND SWAP1 DUP4 PUSH20 0xFFFFFFFFFFFFFFFFFFFFFFFFFFFFFFFFFFFFFFFF AND MUL OR SWAP1 SSTORE STOP JUMPDEST PUSH1 0x0 DUP1 REVERT JUMPDEST CALLVALUE DUP1 ISZERO PUSH2 0x1CE JUMPI PUSH1 0x0 DUP1 REVERT JUMPDEST POP PUSH2 0x1E9 PUSH1 0x4 DUP1 CALLDATASIZE SUB DUP2 ADD SWAP1 PUSH2 0x1E4 SWAP2 SWAP1 PUSH2 0x4A2 JUMP JUMPDEST PUSH2 0x2AD JUMP JUMPDEST PUSH1 0x40 MLOAD PUSH2 0x1F6 SWAP2 SWAP1 PUSH2 0x510 JUMP JUMPDEST PUSH1 0x40 MLOAD DUP1 SWAP2 SUB SWAP1 RETURN JUMPDEST PUSH1 0x0 DUP1 PUSH1 0x0 SWAP1 POP JUMPDEST PUSH1 0x0 DUP1 SLOAD SWAP1 POP DUP2 LT ISZERO PUSH2 0x2A2 JUMPI PUSH1 0x0 DUP2 DUP2 SLOAD DUP2 LT PUSH2 0x228 JUMPI PUSH2 0x227 PUSH2 0x52B JUMP JUMPDEST JUMPDEST SWAP1 PUSH1 0x0 MSTORE PUSH1 0x20 PUSH1 0x0 KECCAK256 ADD PUSH1 0x0 SWAP1 SLOAD SWAP1 PUSH2 0x100 EXP SWAP1 DIV PUSH20 0xFFFFFFFFFFFFFFFFFFFFFFFFFFFFFFFFFFFFFFFF AND PUSH20 0xFFFFFFFFFFFFFFFFFFFFFFFFFFFFFFFFFFFFFFFF AND DUP4 PUSH20 0xFFFFFFFFFFFFFFFFFFFFFFFFFFFFFFFFFFFFFFFF AND SUB PUSH2 0x28F JUMPI PUSH1 0x1 SWAP2 POP POP PUSH2 0x2A8 JUMP JUMPDEST DUP1 DUP1 PUSH2 0x29A SWAP1 PUSH2 0x589 JUMP JUMPDEST SWAP2 POP POP PUSH2 0x207 JUMP JUMPDEST POP PUSH1 0x0 SWAP1 POP JUMPDEST SWAP2 SWAP1 POP JUMP JUMPDEST PUSH1 0x0 DUP2 DUP2 SLOAD DUP2 LT PUSH2 0x2BD JUMPI PUSH1 0x0 DUP1 REVERT JUMPDEST SWAP1 PUSH1 0x0 MSTORE PUSH1 0x20 PUSH1 0x0 KECCAK256 ADD PUSH1 0x0 SWAP2 POP SLOAD SWAP1 PUSH2 0x100 EXP SWAP1 DIV PUSH20 0xFFFFFFFFFFFFFFFFFFFFFFFFFFFFFFFFFFFFFFFF AND DUP2 JUMP JUMPDEST PUSH1 0x0 DUP3 DUP3 MSTORE PUSH1 0x20 DUP3 ADD SWAP1 POP SWAP3 SWAP2 POP POP JUMP JUMPDEST PUSH32 0x4F6E6C7920302E31206574686572206973206163636570746564206279207468 PUSH1 0x0 DUP3 ADD MSTORE PUSH32 0x6520636F6E747261637400000000000000000000000000000000000000000000 PUSH1 0x20 DUP3 ADD MSTORE POP JUMP JUMPDEST PUSH1 0x0 PUSH2 0x359 PUSH1 0x2A DUP4 PUSH2 0x2EC JUMP JUMPDEST SWAP2 POP PUSH2 0x364 DUP3 PUSH2 0x2FD JUMP JUMPDEST PUSH1 0x40 DUP3 ADD SWAP1 POP SWAP2 SWAP1 POP JUMP JUMPDEST PUSH1 0x0 PUSH1 0x20 DUP3 ADD SWAP1 POP DUP2 DUP2 SUB PUSH1 0x0 DUP4 ADD MSTORE PUSH2 0x388 DUP2 PUSH2 0x34C JUMP JUMPDEST SWAP1 POP SWAP2 SWAP1 POP JUMP JUMPDEST PUSH32 0x496E73756666696369656E742062616C616E6365210000000000000000000000 PUSH1 0x0 DUP3 ADD MSTORE POP JUMP JUMPDEST PUSH1 0x0 PUSH2 0x3C5 PUSH1 0x15 DUP4 PUSH2 0x2EC JUMP JUMPDEST SWAP2 POP PUSH2 0x3D0 DUP3 PUSH2 0x38F JUMP JUMPDEST PUSH1 0x20 DUP3 ADD SWAP1 POP SWAP2 SWAP1 POP JUMP JUMPDEST PUSH1 0x0 PUSH1 0x20 DUP3 ADD SWAP1 POP DUP2 DUP2 SUB PUSH1 0x0 DUP4 ADD MSTORE PUSH2 0x3F4 DUP2 PUSH2 0x3B8 JUMP JUMPDEST SWAP1 POP SWAP2 SWAP1 POP JUMP JUMPDEST PUSH32 0x4F6E6C7920616C6C6F776564206F6E6365210000000000000000000000000000 PUSH1 0x0 DUP3 ADD MSTORE POP JUMP JUMPDEST PUSH1 0x0 PUSH2 0x431 PUSH1 0x12 DUP4 PUSH2 0x2EC JUMP JUMPDEST SWAP2 POP PUSH2 0x43C DUP3 PUSH2 0x3FB JUMP JUMPDEST PUSH1 0x20 DUP3 ADD SWAP1 POP SWAP2 SWAP1 POP JUMP JUMPDEST PUSH1 0x0 PUSH1 0x20 DUP3 ADD SWAP1 POP DUP2 DUP2 SUB PUSH1 0x0 DUP4 ADD MSTORE PUSH2 0x460 DUP2 PUSH2 0x424 JUMP JUMPDEST SWAP1 POP SWAP2 SWAP1 POP JUMP JUMPDEST PUSH1 0x0 DUP1 REVERT JUMPDEST PUSH1 0x0 DUP2 SWAP1 POP SWAP2 SWAP1 POP JUMP JUMPDEST PUSH2 0x47F DUP2 PUSH2 0x46C JUMP JUMPDEST DUP2 EQ PUSH2 0x48A JUMPI PUSH1 0x0 DUP1 REVERT JUMPDEST POP JUMP JUMPDEST PUSH1 0x0 DUP2 CALLDATALOAD SWAP1 POP PUSH2 0x49C DUP2 PUSH2 0x476 JUMP JUMPDEST SWAP3 SWAP2 POP POP JUMP JUMPDEST PUSH1 0x0 PUSH1 0x20 DUP3 DUP5 SUB SLT ISZERO PUSH2 0x4B8 JUMPI PUSH2 0x4B7 PUSH2 0x467 JUMP JUMPDEST JUMPDEST PUSH1 0x0 PUSH2 0x4C6 DUP5 DUP3 DUP6 ADD PUSH2 0x48D JUMP JUMPDEST SWAP2 POP POP SWAP3 SWAP2 POP POP JUMP JUMPDEST PUSH1 0x0 PUSH20 0xFFFFFFFFFFFFFFFFFFFFFFFFFFFFFFFFFFFFFFFF DUP3 AND SWAP1 POP SWAP2 SWAP1 POP JUMP JUMPDEST PUSH1 0x0 PUSH2 0x4FA DUP3 PUSH2 0x4CF JUMP JUMPDEST SWAP1 POP SWAP2 SWAP1 POP JUMP JUMPDEST PUSH2 0x50A DUP2 PUSH2 0x4EF JUMP JUMPDEST DUP3 MSTORE POP POP JUMP JUMPDEST PUSH1 0x0 PUSH1 0x20 DUP3 ADD SWAP1 POP PUSH2 0x525 PUSH1 0x0 DUP4 ADD DUP5 PUSH2 0x501 JUMP JUMPDEST SWAP3 SWAP2 POP POP JUMP JUMPDEST PUSH32 0x4E487B7100000000000000000000000000000000000000000000000000000000 PUSH1 0x0 MSTORE PUSH1 0x32 PUSH1 0x4 MSTORE PUSH1 0x24 PUSH1 0x0 REVERT JUMPDEST PUSH32 0x4E487B7100000000000000000000000000000000000000000000000000000000 PUSH1 0x0 MSTORE PUSH1 0x11 PUSH1 0x4 MSTORE PUSH1 0x24 PUSH1 0x0 REVERT JUMPDEST PUSH1 0x0 PUSH2 0x594 DUP3 PUSH2 0x46C JUMP JUMPDEST SWAP2 POP PUSH32 0xFFFFFFFFFFFFFFFFFFFFFFFFFFFFFFFFFFFFFFFFFFFFFFFFFFFFFFFFFFFFFFFF DUP3 SUB PUSH2 0x5C6 JUMPI PUSH2 0x5C5 PUSH2 0x55A JUMP JUMPDEST JUMPDEST PUSH1 0x1 DUP3 ADD SWAP1 POP SWAP2 SWAP1 POP JUMP INVALID LOG2 PUSH5 0x6970667358 0x22 SLT KECCAK256 DELEGATECALL 0xCD 0xCC INVALID PUSH32 0xA5B79F8DA662DDA28697738ED18F0E307C1D333C4F901948AD7E9564736F6C63 NUMBER STOP ADDMOD GT STOP CALLER "
				},
				"gasEstimates": {
					"creation": {
						"codeDepositCost": "308600",
						"executionCost": "infinite",
						"totalCost": "infinite"
					},
					"external": {
						"recipients(uint256)": "4934"
					},
					"internal": {
						"balance()": "infinite",
						"check(address)": "infinite"
					}
				},
				"methodIdentifiers": {
					"recipients(uint256)": "d1bc76a1"
				}
			},
			"storageLayout": {
				"storage": [
					{
						"astId": 4,
						"contract": "contracts/Airdrop.sol:Airdrop",
						"label": "recipients",
						"offset": 0,
						"slot": "0",
						"type": "t_array(t_address)dyn_storage"
					}
				],
				"types": {
					"t_address": {
						"encoding": "inplace",
						"label": "address",
						"numberOfBytes": "20"
					},
					"t_array(t_address)dyn_storage": {
						"base": "t_address",
						"encoding": "dynamic_array",
						"label": "address[]",
						"numberOfBytes": "32"
					}
				}
			},
			"userdoc": {
				"kind": "user",
				"methods": {},
				"version": 1
			}
		}
	}
}